{
  "contractName": "Denemeler",
  "abi": [
    {
      "constant": false,
      "inputs": [
        {
          "name": "_title",
          "type": "string"
        },
        {
          "name": "_candNames",
          "type": "bytes32[]"
        },
        {
          "name": "_voters",
          "type": "address[]"
        },
        {
          "name": "_voterCount",
          "type": "uint256"
        },
        {
          "name": "_start",
          "type": "uint256"
        },
        {
          "name": "_end",
          "type": "uint256"
        }
      ],
      "name": "createElection",
      "outputs": [],
      "payable": false,
      "stateMutability": "nonpayable",
      "type": "function",
      "signature": "0xcb0d908e"
    },
    {
      "constant": false,
      "inputs": [
        {
          "name": "_elecID",
          "type": "uint256"
        },
        {
          "name": "_candidateName",
          "type": "bytes32"
        }
      ],
      "name": "vote",
      "outputs": [],
      "payable": false,
      "stateMutability": "nonpayable",
      "type": "function",
      "signature": "0x68bb8bb6"
    },
    {
      "constant": true,
      "inputs": [],
      "name": "getNextElectionId",
      "outputs": [
        {
          "name": "",
          "type": "uint256"
        }
      ],
      "payable": false,
      "stateMutability": "view",
      "type": "function",
      "signature": "0x5066bd71"
    },
    {
      "constant": true,
      "inputs": [],
      "name": "getGreeting",
      "outputs": [
        {
          "name": "",
          "type": "string"
        }
      ],
      "payable": false,
      "stateMutability": "pure",
      "type": "function",
      "signature": "0xfe50cc72"
    }
  ],
  "bytecode": "0x60806040526000805534801561001457600080fd5b506109e0806100246000396000f3fe608060405260043610610062576000357c0100000000000000000000000000000000000000000000000000000000900463ffffffff1680635066bd711461006757806368bb8bb614610092578063cb0d908e146100d7578063fe50cc72146102e5575b600080fd5b34801561007357600080fd5b5061007c610375565b6040518082815260200191505060405180910390f35b34801561009e57600080fd5b506100d5600480360360408110156100b557600080fd5b81019080803590602001909291908035906020019092919050505061037e565b005b3480156100e357600080fd5b506102e3600480360360c08110156100fa57600080fd5b810190808035906020019064010000000081111561011757600080fd5b82018360208201111561012957600080fd5b8035906020019184600183028401116401000000008311171561014b57600080fd5b91908080601f016020809104026020016040519081016040528093929190818152602001838380828437600081840152601f19601f820116905080830192505050505050509192919290803590602001906401000000008111156101ae57600080fd5b8201836020820111156101c057600080fd5b803590602001918460208302840111640100000000831117156101e257600080fd5b919080806020026020016040519081016040528093929190818152602001838360200280828437600081840152601f19601f8201169050808301925050505050505091929192908035906020019064010000000081111561024257600080fd5b82018360208201111561025457600080fd5b8035906020019184602083028401116401000000008311171561027657600080fd5b919080806020026020016040519081016040528093929190818152602001838360200280828437600081840152601f19601f8201169050808301925050505050505091929192908035906020019092919080359060200190929190803590602001909291905050506104fd565b005b3480156102f157600080fd5b506102fa610793565b6040518080602001828103825283818151815260200191508051906020019080838360005b8381101561033a57808201518184015260208101905061031f565b50505050905090810190601f1680156103675780820380516001836020036101000a031916815260200191505b509250505060405180910390f35b60008054905090565b814260016000838152602001908152602001600020600701541080156103b95750426001600083815260200190815260200160002060080154115b151561042d576040517f08c379a00000000000000000000000000000000000000000000000000000000081526004018080602001828103825260138152602001807f456c656374696f6e2077617320656e6465642e0000000000000000000000000081525060200191505060405180910390fd5b82600160008281526020019081526020016000206004015460016000838152602001908152602001600020600501541015156104d1576040517f08c379a000000000000000000000000000000000000000000000000000000000815260040180806020018281038252601d8152602001807f416c6c206f662074686520766f74657273206861766520766f7465642e00000081525060200191505060405180910390fd5b600160008581526020019081526020016000206005016000815480929190600101919050555050505050565b600a60ff16600054111515156105a1576040517f08c379a00000000000000000000000000000000000000000000000000000000081526004018080602001828103825260278152602001807f596f752068617665207265616368656420746865206d617820656c656374696f81526020017f6e20636f756e740000000000000000000000000000000000000000000000000081525060400191505060405180910390fd5b600033905060008054905061014060405190810160405280828152602001898152602001888152602001878152602001868152602001600081526020018373ffffffffffffffffffffffffffffffffffffffff16815260200160011515815260200185815260200184815250600160008381526020019081526020016000206000820151816000015560208201518160010190805190602001906106469291906107d0565b506040820151816002019080519060200190610663929190610850565b50606082015181600301908051906020019061068092919061089d565b506080820151816004015560a0820151816005015560c08201518160060160006101000a81548173ffffffffffffffffffffffffffffffffffffffff021916908373ffffffffffffffffffffffffffffffffffffffff16021790555060e08201518160060160146101000a81548160ff0219169083151502179055506101008201518160070155610120820151816008015590505060008090505b875181101561077757878181518110151561073257fe5b9060200190602002015160016000848152602001908152602001600020600901600083815260200190815260200160002060000181905550808060010191505061071b565b5060008081548092919060010191905055505050505050505050565b60606040805190810160405280600981526020017f486579204d432121210000000000000000000000000000000000000000000000815250905090565b828054600181600116156101000203166002900490600052602060002090601f016020900481019282601f1061081157805160ff191683800117855561083f565b8280016001018555821561083f579182015b8281111561083e578251825591602001919060010190610823565b5b50905061084c9190610927565b5090565b82805482825590600052602060002090810192821561088c579160200282015b8281111561088b578251825591602001919060010190610870565b5b509050610899919061094c565b5090565b828054828255906000526020600020908101928215610916579160200282015b828111156109155782518260006101000a81548173ffffffffffffffffffffffffffffffffffffffff021916908373ffffffffffffffffffffffffffffffffffffffff160217905550916020019190600101906108bd565b5b5090506109239190610971565b5090565b61094991905b8082111561094557600081600090555060010161092d565b5090565b90565b61096e91905b8082111561096a576000816000905550600101610952565b5090565b90565b6109b191905b808211156109ad57600081816101000a81549073ffffffffffffffffffffffffffffffffffffffff021916905550600101610977565b5090565b9056fea165627a7a72305820b736a8a9332707f04668a3141280f8ca1af4f1acc67a070e2bc8e8c05fac53880029",
  "source": "pragma solidity ^0.5.0;\n\ncontract Denemeler {\n\tuint8 constant MAX_ELECTION_COUNT = 10;\n\tuint electionCount = 0;\n\n\tstruct Election {\n\t\tuint \t\tid;\n\t\tstring \t\ttitle;\n\t\tbytes32[] \tcandidates;\n\t\taddress[] \tvoters;\n\t\tuint \t\tvoterCount;\n\t\tuint \t\tnumOfUsedVotes;\n\t\taddress \torganizer;\n\t\tbool \t\tactive;\n\n\t\t// Unix timestamps\n\t\tuint start;\n\t\tuint end;\n\n\t\t// `uint` represents candidate ID\n        mapping(uint => Candidate) cands;\n\t}\n\n\tstruct Candidate {\n        bytes32\tname;\n        uint\tvoteCount;\n    }\n\n\tmapping(uint => Election) elections;\n\n\tmodifier isOrganizerOfElec(uint _elecID) {\n\t\trequire(msg.sender == elections[_elecID].organizer, \"Auth error: Only organizer could do that\");\n\t\t_;\n\t}\n\n\tmodifier checkElectionCount() {\n\t\trequire(electionCount <= MAX_ELECTION_COUNT, \"You have reached the max election count\");\n\t\t_;\n\t}\n\n\tmodifier isActive(uint _elecID) {\n\t\trequire(elections[_elecID].start < now && elections[_elecID].end > now, \"Election was ended.\");\n\t\t_;\n\t}\n\n\tmodifier checkVoterCount(uint _elecID) {\n\t\trequire(elections[_elecID].numOfUsedVotes < elections[_elecID].voterCount, \"All of the voters have voted.\");\n\t\t_;\n\t}\n\n\t// 0x44656e656d65 -> Hex converted version of `Deneme`\n\t// [FIXED] WARNING: You can create an election with same ID.\n\t// Before creating an election it checks whether electionCount is less than `10` or not.\n\tfunction createElection(string memory _title, bytes32[] memory _candNames, address[] memory _voters,\n\t\tuint _voterCount, uint _start, uint _end) public checkElectionCount\n\t{\n\t\taddress organizer = msg.sender;\n\t\tuint _electionID = electionCount;\n\n\t\telections[_electionID] = Election(_electionID, _title, _candNames, _voters, _voterCount, 0, organizer, true, _start, _end);\n\n\t\tfor (uint256 i = 0; i < _candNames.length; i++) {\n\t\t \telections[_electionID].cands[i].name = _candNames[i];\n\t\t}\n\n\t\telectionCount++;\n\t}\n\n\tfunction vote(uint _elecID, bytes32 _candidateName) public isActive(_elecID) checkVoterCount(_elecID) {\n\t\telections[_elecID].numOfUsedVotes++;\n\t\t// elections[_elecID].cands[_candidateName]++;\n\t\t// elections[_elecID].candidates[_candidateID].voteCount++;\n\t}\n\n\tfunction getNextElectionId() public view returns (uint) {\n\t\treturn electionCount;\n\t}\n\n\t// function getCandidateVoteCount(uint _elecID, bytes32 _candidateName) public view returns(uint) {\n\t\t// return elections[_elecID].cands[_candidateName];\n\t\t// return elections[_elecID].candidates[_candidateID].voteCount;\n\t// }\n\n\tfunction getGreeting() public pure returns(string memory) {\n\t\treturn \"Hey MC!!!\";\n\t}\n}",
  "sourcePath": "/home/canyu/go/src/github.com/mucanyu/oyla/contracts/Denemeler.sol",
  "compiler": {
    "name": "solc",
    "version": "0.5.0+commit.1d4f565a.Emscripten.clang"
  },
  "schemaVersion": "3.0.1",
  "updatedAt": "2019-05-15T16:03:23.926Z",
  "devdoc": {
    "methods": {}
  },
  "userdoc": {
    "methods": {}
  }
}