{
  "contractName": "Oyla",
  "abi": [
    {
      "constant": false,
      "inputs": [
        {
          "name": "_elecID",
          "type": "uint256"
        },
        {
          "name": "_name",
          "type": "string"
        },
        {
          "name": "_candidateCount",
          "type": "uint256"
        },
        {
          "name": "_voterCount",
          "type": "uint256"
        }
      ],
      "name": "createElection",
      "outputs": [],
      "payable": false,
      "stateMutability": "nonpayable",
      "type": "function"
    },
    {
      "constant": false,
      "inputs": [
        {
          "name": "_elecID",
          "type": "uint256"
        },
        {
          "name": "_name",
          "type": "string"
        }
      ],
      "name": "addCandidate",
      "outputs": [],
      "payable": false,
      "stateMutability": "nonpayable",
      "type": "function"
    },
    {
      "constant": false,
      "inputs": [
        {
          "name": "_elecID",
          "type": "uint256"
        },
        {
          "name": "_candidateID",
          "type": "uint256"
        }
      ],
      "name": "vote",
      "outputs": [],
      "payable": false,
      "stateMutability": "nonpayable",
      "type": "function"
    },
    {
      "constant": true,
      "inputs": [
        {
          "name": "_elecID",
          "type": "uint256"
        },
        {
          "name": "_candidateID",
          "type": "uint256"
        }
      ],
      "name": "getCandidateVoteCount",
      "outputs": [
        {
          "name": "",
          "type": "uint256"
        }
      ],
      "payable": false,
      "stateMutability": "view",
      "type": "function"
    },
    {
      "constant": true,
      "inputs": [
        {
          "name": "_elecID",
          "type": "uint256"
        },
        {
          "name": "_candidateID",
          "type": "uint256"
        }
      ],
      "name": "getCandidateName",
      "outputs": [
        {
          "name": "",
          "type": "string"
        }
      ],
      "payable": false,
      "stateMutability": "view",
      "type": "function"
    },
    {
      "constant": true,
      "inputs": [],
      "name": "getGreeting",
      "outputs": [
        {
          "name": "",
          "type": "string"
        }
      ],
      "payable": false,
      "stateMutability": "pure",
      "type": "function"
    }
  ],
  "bytecode": "0x60806040526000805534801561001457600080fd5b50610d0c806100246000396000f3fe608060405260043610610078576000357c0100000000000000000000000000000000000000000000000000000000900463ffffffff1680631750a3d01461007d578063396aabeb1461014f5780634fa24ac5146101a8578063b024419e1461028e578063b384abef1461034c578063fe50cc7214610391575b600080fd5b34801561008957600080fd5b5061014d600480360360408110156100a057600080fd5b8101908080359060200190929190803590602001906401000000008111156100c757600080fd5b8201836020820111156100d957600080fd5b803590602001918460018302840111640100000000831117156100fb57600080fd5b91908080601f016020809104026020016040519081016040528093929190818152602001838380828437600081840152601f19601f820116905080830192505050505050509192919290505050610421565b005b34801561015b57600080fd5b506101926004803603604081101561017257600080fd5b8101908080359060200190929190803590602001909291905050506106b7565b6040518082815260200191505060405180910390f35b3480156101b457600080fd5b5061028c600480360360808110156101cb57600080fd5b8101908080359060200190929190803590602001906401000000008111156101f257600080fd5b82018360208201111561020457600080fd5b8035906020019184600183028401116401000000008311171561022657600080fd5b91908080601f016020809104026020016040519081016040528093929190818152602001838380828437600081840152601f19601f82011690508083019250505050505050919291929080359060200190929190803590602001909291905050506106ec565b005b34801561029a57600080fd5b506102d1600480360360408110156102b157600080fd5b810190808035906020019092919080359060200190929190505050610961565b6040518080602001828103825283818151815260200191508051906020019080838360005b838110156103115780820151818401526020810190506102f6565b50505050905090810190601f16801561033e5780820380516001836020036101000a031916815260200191505b509250505060405180910390f35b34801561035857600080fd5b5061038f6004803603604081101561036f57600080fd5b810190808035906020019092919080359060200190929190505050610a2e565b005b34801561039d57600080fd5b506103a6610bfe565b6040518080602001828103825283818151815260200191508051906020019080838360005b838110156103e65780820151818401526020810190506103cb565b50505050905090810190601f1680156104135780820380516001836020036101000a031916815260200191505b509250505060405180910390f35b81600115156001600083815260200190815260200160002060050160149054906101000a900460ff1615151415156104e7576040517f08c379a00000000000000000000000000000000000000000000000000000000081526004018080602001828103825260268152602001807f5468657265206973206e6f20656c656374696f6e20776974682074686174205f81526020017f656c65634944000000000000000000000000000000000000000000000000000081525060400191505060405180910390fd5b826001600082815260200190815260200160002060050160009054906101000a900473ffffffffffffffffffffffffffffffffffffffff1673ffffffffffffffffffffffffffffffffffffffff163373ffffffffffffffffffffffffffffffffffffffff161415156105e7576040517f08c379a00000000000000000000000000000000000000000000000000000000081526004018080602001828103825260268152602001807f41757468206572726f723a204f6e6c79206f7267616e697a65722063616e206481526020017f6f2074686174000000000000000000000000000000000000000000000000000081525060400191505060405180910390fd5b6060604051908101604052806001600087815260200190815260200160002060020154815260200184815260200160008152506001600086815260200190815260200160002060060160006001600088815260200190815260200160002060020154815260200190815260200160002060008201518160000155602082015181600101908051906020019061067d929190610c3b565b5060408201518160020155905050600160008581526020019081526020016000206002016000815480929190600101919050555050505050565b600060016000848152602001908152602001600020600601600083815260200190815260200160002060020154905092915050565b603260ff1660005411151515610790576040517f08c379a000000000000000000000000000000000000000000000000000000000815260040180806020018281038252602b8152602001807f596f752068617665207265616368656420746865206d6178696d756d20656c6581526020017f6374696f6e20636f756e7400000000000000000000000000000000000000000081525060400191505060405180910390fd5b83600015156001600083815260200190815260200160002060050160149054906101000a900460ff161515141515610830576040517f08c379a000000000000000000000000000000000000000000000000000000000815260040180806020018281038252601c8152602001807f456c656374696f6e20616c726561647920696e697469616c697a65640000000081525060200191505060405180910390fd5b600033905060e0604051908101604052806000548152602001868152602001858152602001848152602001600081526020018273ffffffffffffffffffffffffffffffffffffffff1681526020016001151581525060016000805481526020019081526020016000206000820151816000015560208201518160010190805190602001906108bf929190610c3b565b5060408201518160020155606082015181600301556080820151816004015560a08201518160050160006101000a81548173ffffffffffffffffffffffffffffffffffffffff021916908373ffffffffffffffffffffffffffffffffffffffff16021790555060c08201518160050160146101000a81548160ff0219169083151502179055509050506000808154809291906001019190505550505050505050565b60606001600084815260200190815260200160002060060160008381526020019081526020016000206001018054600181600116156101000203166002900480601f016020809104026020016040519081016040528092919081815260200182805460018160011615610100020316600290048015610a215780601f106109f657610100808354040283529160200191610a21565b820191906000526020600020905b815481529060010190602001808311610a0457829003601f168201915b5050505050905092915050565b81600115156001600083815260200190815260200160002060050160149054906101000a900460ff161515141515610af4576040517f08c379a00000000000000000000000000000000000000000000000000000000081526004018080602001828103825260268152602001807f5468657265206973206e6f20656c656374696f6e20776974682074686174205f81526020017f656c65634944000000000000000000000000000000000000000000000000000081525060400191505060405180910390fd5b8260016000828152602001908152602001600020600301546001600083815260200190815260200160002060040154101515610b98576040517f08c379a000000000000000000000000000000000000000000000000000000000815260040180806020018281038252601c8152602001807f416c6c206f662074686520766f74657273206861766520766f7465640000000081525060200191505060405180910390fd5b60016000858152602001908152602001600020600601600084815260200190815260200160002060020160008154809291906001019190505550600160008581526020019081526020016000206004016000815480929190600101919050555050505050565b60606040805190810160405280600981526020017f486579204d432121210000000000000000000000000000000000000000000000815250905090565b828054600181600116156101000203166002900490600052602060002090601f016020900481019282601f10610c7c57805160ff1916838001178555610caa565b82800160010185558215610caa579182015b82811115610ca9578251825591602001919060010190610c8e565b5b509050610cb79190610cbb565b5090565b610cdd91905b80821115610cd9576000816000905550600101610cc1565b5090565b9056fea165627a7a72305820bce78b7daaf30d273ad517c29d61aeb9e6187e35ada8bf84dd24e25d5b4690650029",
  "source": "pragma solidity ^0.5.0;\n\ncontract Oyla {\n    uint8 constant MAX_ELECTION_COUNT = 50;\n    uint electionCount = 0;\n    \n    struct Election {\n        uint id;\n        string  name;\n        uint    candidateCount;\n        uint    voterCount;\n        uint    numOfUsedVotes;\n        address organizer;\n        bool    initialized;\n    \n        // uint `key` represents candidateID\n        mapping (uint => Candidate) candidates;\n    }\n    \n    struct Candidate {\n        uint id;\n        string name;\n        uint voteCount;\n    }\n    \n    mapping (uint => Election) elections;\n    \n    modifier isOrganizerOfElec(uint _elecID) {\n        require(msg.sender == elections[_elecID].organizer, \"Auth error: Only organizer can do that\");\n        _;\n    }\n    \n    modifier checkElectionCount() {\n        require(electionCount <= MAX_ELECTION_COUNT, \"You have reached the maximum election count\");\n        _;\n    }\n    \n    modifier isElecExists(uint _elecID) {\n        require(elections[_elecID].initialized == true, \"There is no election with that _elecID\");\n        _;\n    }\n    \n    modifier isElecNotExists(uint _elecID) {\n        require(elections[_elecID].initialized == false, \"Election already initialized\");\n        _;\n    }\n    \n    modifier checkVoterCount(uint _elecID) {\n        require(elections[_elecID].numOfUsedVotes < elections[_elecID].voterCount, \"All of the voters have voted\");\n        _;\n    }\n    \n    // [FIXED] WARNING: You can create an election with same ID.\n    // It checks whether electionCount is less than `10` or not before creating an election.\n    function createElection(uint _elecID, string memory _name, uint _candidateCount, uint _voterCount) \n        public checkElectionCount isElecNotExists(_elecID) \n    {\n        address organizer = msg.sender;\n        elections[electionCount] = Election(electionCount, _name, _candidateCount, _voterCount, 0, organizer, true);\n        electionCount++;\n    }\n    \n    // uint _candidateID argument removed\n    function addCandidate(uint _elecID, string memory _name) public isElecExists(_elecID) isOrganizerOfElec(_elecID) {\n        elections[_elecID].candidates[elections[_elecID].candidateCount] = Candidate(elections[_elecID].candidateCount, _name, 0);\n        elections[_elecID].candidateCount++;\n        // Candidate memory cand = Candidate(_candidateID, _name, 0);\n        // Election storage election = elections[_elecID];\n        // election.candidates[_candidateID] = cand;\n    }\n    \n    function vote(uint _elecID, uint _candidateID) public isElecExists(_elecID) checkVoterCount(_elecID) {\n        elections[_elecID].candidates[_candidateID].voteCount++;\n        elections[_elecID].numOfUsedVotes++;\n    }\n    \n    function getCandidateVoteCount(uint _elecID, uint _candidateID) public view returns (uint) {\n        return elections[_elecID].candidates[_candidateID].voteCount;\n    }\n    \n    function getCandidateName(uint _elecID, uint _candidateID) public view returns (string memory) {\n        return elections[_elecID].candidates[_candidateID].name;\n    }\n\n    function getGreeting() public pure returns (string memory) {\n        return \"Hey MC!!!\";\n    }\n}",
  "sourcePath": "/home/canyu/go/src/github.com/mucanyu/oyla-project/contracts/Oyla.sol",
  "compiler": {
    "name": "solc",
    "version": "0.5.0+commit.1d4f565a.Emscripten.clang"
  },
  "schemaVersion": "3.0.1",
  "updatedAt": "2019-04-26T11:18:33.325Z",
  "devdoc": {
    "methods": {}
  },
  "userdoc": {
    "methods": {}
  }
}