{
  "contractName": "Oyla",
  "abi": [
    {
      "constant": false,
      "inputs": [
        {
          "name": "_name",
          "type": "string"
        },
        {
          "name": "_candidateCount",
          "type": "uint256"
        },
        {
          "name": "_voterCount",
          "type": "uint256"
        }
      ],
      "name": "createElection",
      "outputs": [
        {
          "name": "",
          "type": "uint256"
        }
      ],
      "payable": false,
      "stateMutability": "nonpayable",
      "type": "function"
    },
    {
      "constant": false,
      "inputs": [
        {
          "name": "_elecID",
          "type": "uint256"
        },
        {
          "name": "_name",
          "type": "string"
        }
      ],
      "name": "addCandidate",
      "outputs": [],
      "payable": false,
      "stateMutability": "nonpayable",
      "type": "function"
    },
    {
      "constant": false,
      "inputs": [
        {
          "name": "_elecID",
          "type": "uint256"
        },
        {
          "name": "_candidateID",
          "type": "uint256"
        }
      ],
      "name": "vote",
      "outputs": [],
      "payable": false,
      "stateMutability": "nonpayable",
      "type": "function"
    },
    {
      "constant": true,
      "inputs": [
        {
          "name": "_elecID",
          "type": "uint256"
        },
        {
          "name": "_candidateID",
          "type": "uint256"
        }
      ],
      "name": "getCandidateVoteCount",
      "outputs": [
        {
          "name": "",
          "type": "uint256"
        }
      ],
      "payable": false,
      "stateMutability": "view",
      "type": "function"
    },
    {
      "constant": true,
      "inputs": [
        {
          "name": "_elecID",
          "type": "uint256"
        },
        {
          "name": "_candidateID",
          "type": "uint256"
        }
      ],
      "name": "getCandidateName",
      "outputs": [
        {
          "name": "",
          "type": "string"
        }
      ],
      "payable": false,
      "stateMutability": "view",
      "type": "function"
    },
    {
      "constant": true,
      "inputs": [],
      "name": "getGreeting",
      "outputs": [
        {
          "name": "",
          "type": "string"
        }
      ],
      "payable": false,
      "stateMutability": "pure",
      "type": "function"
    }
  ],
  "bytecode": "0x60806040526000805534801561001457600080fd5b50610d22806100246000396000f3fe608060405260043610610078576000357c0100000000000000000000000000000000000000000000000000000000900463ffffffff1680631750a3d01461007d578063396aabeb1461014f578063b024419e146101a8578063b384abef14610266578063f49a7a17146102ab578063fe50cc721461039b575b600080fd5b34801561008957600080fd5b5061014d600480360360408110156100a057600080fd5b8101908080359060200190929190803590602001906401000000008111156100c757600080fd5b8201836020820111156100d957600080fd5b803590602001918460018302840111640100000000831117156100fb57600080fd5b91908080601f016020809104026020016040519081016040528093929190818152602001838380828437600081840152601f19601f82011690508083019250505050505050919291929050505061042b565b005b34801561015b57600080fd5b506101926004803603604081101561017257600080fd5b8101908080359060200190929190803590602001909291905050506106c1565b6040518082815260200191505060405180910390f35b3480156101b457600080fd5b506101eb600480360360408110156101cb57600080fd5b8101908080359060200190929190803590602001909291905050506106f6565b6040518080602001828103825283818151815260200191508051906020019080838360005b8381101561022b578082015181840152602081019050610210565b50505050905090810190601f1680156102585780820380516001836020036101000a031916815260200191505b509250505060405180910390f35b34801561027257600080fd5b506102a96004803603604081101561028957600080fd5b8101908080359060200190929190803590602001909291905050506107c3565b005b3480156102b757600080fd5b50610385600480360360608110156102ce57600080fd5b81019080803590602001906401000000008111156102eb57600080fd5b8201836020820111156102fd57600080fd5b8035906020019184600183028401116401000000008311171561031f57600080fd5b91908080601f016020809104026020016040519081016040528093929190818152602001838380828437600081840152601f19601f8201169050808301925050505050505091929192908035906020019092919080359060200190929190505050610993565b6040518082815260200191505060405180910390f35b3480156103a757600080fd5b506103b0610c14565b6040518080602001828103825283818151815260200191508051906020019080838360005b838110156103f05780820151818401526020810190506103d5565b50505050905090810190601f16801561041d5780820380516001836020036101000a031916815260200191505b509250505060405180910390f35b81600115156001600083815260200190815260200160002060050160149054906101000a900460ff1615151415156104f1576040517f08c379a00000000000000000000000000000000000000000000000000000000081526004018080602001828103825260268152602001807f5468657265206973206e6f20656c656374696f6e20776974682074686174205f81526020017f656c65634944000000000000000000000000000000000000000000000000000081525060400191505060405180910390fd5b826001600082815260200190815260200160002060050160009054906101000a900473ffffffffffffffffffffffffffffffffffffffff1673ffffffffffffffffffffffffffffffffffffffff163373ffffffffffffffffffffffffffffffffffffffff161415156105f1576040517f08c379a00000000000000000000000000000000000000000000000000000000081526004018080602001828103825260288152602001807f41757468206572726f723a204f6e6c79206f7267616e697a657220636f756c6481526020017f20646f207468617400000000000000000000000000000000000000000000000081525060400191505060405180910390fd5b60606040519081016040528060016000878152602001908152602001600020600201548152602001848152602001600081525060016000868152602001908152602001600020600601600060016000888152602001908152602001600020600201548152602001908152602001600020600082015181600001556020820151816001019080519060200190610687929190610c51565b5060408201518160020155905050600160008581526020019081526020016000206002016000815480929190600101919050555050505050565b600060016000848152602001908152602001600020600601600083815260200190815260200160002060020154905092915050565b60606001600084815260200190815260200160002060060160008381526020019081526020016000206001018054600181600116156101000203166002900480601f0160208091040260200160405190810160405280929190818152602001828054600181600116156101000203166002900480156107b65780601f1061078b576101008083540402835291602001916107b6565b820191906000526020600020905b81548152906001019060200180831161079957829003601f168201915b5050505050905092915050565b81600115156001600083815260200190815260200160002060050160149054906101000a900460ff161515141515610889576040517f08c379a00000000000000000000000000000000000000000000000000000000081526004018080602001828103825260268152602001807f5468657265206973206e6f20656c656374696f6e20776974682074686174205f81526020017f656c65634944000000000000000000000000000000000000000000000000000081525060400191505060405180910390fd5b826001600082815260200190815260200160002060030154600160008381526020019081526020016000206004015410151561092d576040517f08c379a000000000000000000000000000000000000000000000000000000000815260040180806020018281038252601c8152602001807f416c6c206f662074686520766f74657273206861766520766f7465640000000081525060200191505060405180910390fd5b60016000858152602001908152602001600020600601600084815260200190815260200160002060020160008154809291906001019190505550600160008581526020019081526020016000206004016000815480929190600101919050555050505050565b6000603260ff1660005411151515610a39576040517f08c379a00000000000000000000000000000000000000000000000000000000081526004018080602001828103825260278152602001807f596f7520686176652072656163686564206d6178696d756d20656c656374696f81526020017f6e20636f756e740000000000000000000000000000000000000000000000000081525060400191505060405180910390fd5b600054600015156001600083815260200190815260200160002060050160149054906101000a900460ff161515141515610adb576040517f08c379a000000000000000000000000000000000000000000000000000000000815260040180806020018281038252601f8152602001807f456c656374696f6e20697320616c726561647920696e697469616c697a65640081525060200191505060405180910390fd5b600033905060008054905060e060405190810160405280828152602001888152602001878152602001868152602001600081526020018373ffffffffffffffffffffffffffffffffffffffff1681526020016001151581525060016000838152602001908152602001600020600082015181600001556020820151816001019080519060200190610b6d929190610c51565b5060408201518160020155606082015181600301556080820151816004015560a08201518160050160006101000a81548173ffffffffffffffffffffffffffffffffffffffff021916908373ffffffffffffffffffffffffffffffffffffffff16021790555060c08201518160050160146101000a81548160ff02191690831515021790555090505060008081548092919060010191905055508093505050509392505050565b60606040805190810160405280600981526020017f486579204d432121210000000000000000000000000000000000000000000000815250905090565b828054600181600116156101000203166002900490600052602060002090601f016020900481019282601f10610c9257805160ff1916838001178555610cc0565b82800160010185558215610cc0579182015b82811115610cbf578251825591602001919060010190610ca4565b5b509050610ccd9190610cd1565b5090565b610cf391905b80821115610cef576000816000905550600101610cd7565b5090565b9056fea165627a7a723058205a326a059a5aede5b84f8ab4027e9c71ac284320b114022fe78289c5b1abe5c40029",
  "source": "pragma solidity ^0.5.0;\n\ncontract Oyla {\n    uint8 constant MAX_ELECTION_COUNT = 50;\n    uint electionCount = 0;\n\n    struct Election {\n        uint id;\n        string  name;\n        uint    candidateCount;\n        uint    voterCount;\n        uint    numOfUsedVotes;\n        address organizer;\n        bool    initialized;\n\n        // uint `key` represents candidateID\n        mapping (uint => Candidate) candidates;\n    }\n\n    struct Candidate {\n        uint id;\n        string name;\n        uint voteCount;\n    }\n\n    mapping (uint => Election) elections;\n\n    modifier isOrganizerOfElec(uint _elecID) {\n        require(msg.sender == elections[_elecID].organizer, \"Auth error: Only organizer could do that\");\n        _;\n    }\n\n    modifier checkElectionCount() {\n        require(electionCount <= MAX_ELECTION_COUNT, \"You have reached maximum election count\");\n        _;\n    }\n\n    modifier isElecExists(uint _elecID) {\n        require(elections[_elecID].initialized == true, \"There is no election with that _elecID\");\n        _;\n    }\n\n    modifier isElecNotExists(uint _elecID) {\n        require(elections[_elecID].initialized == false, \"Election is already initialized\");\n        _;\n    }\n\n    modifier checkVoterCount(uint _elecID) {\n        require(elections[_elecID].numOfUsedVotes < elections[_elecID].voterCount, \"All of the voters have voted\");\n        _;\n    }\n\n    // [FIXED] WARNING: You can create an election with same ID.\n    // It checks whether electionCount is less than `10` or not before creating an election.\n    function createElection(string memory _name, uint _candidateCount, uint _voterCount)\n        public checkElectionCount isElecNotExists(electionCount) returns (uint)\n    {\n        address organizer = msg.sender;\n        uint _electionID = electionCount;\n\n        elections[_electionID] = Election(_electionID, _name, _candidateCount, _voterCount, 0, organizer, true);\n        electionCount++;\n\n        return  _electionID;\n    }\n\n    // uint _candidateID argument removed\n    function addCandidate(uint _elecID, string memory _name) public isElecExists(_elecID) isOrganizerOfElec(_elecID) {\n        elections[_elecID].candidates[elections[_elecID].candidateCount] = Candidate(elections[_elecID].candidateCount, _name, 0);\n        elections[_elecID].candidateCount++;\n        // Candidate memory cand = Candidate(_candidateID, _name, 0);\n        // Election storage election = elections[_elecID];\n        // election.candidates[_candidateID] = cand;\n    }\n\n    function vote(uint _elecID, uint _candidateID) public isElecExists(_elecID) checkVoterCount(_elecID) {\n        elections[_elecID].candidates[_candidateID].voteCount++;\n        elections[_elecID].numOfUsedVotes++;\n    }\n\n    function getCandidateVoteCount(uint _elecID, uint _candidateID) public view returns (uint) {\n        return elections[_elecID].candidates[_candidateID].voteCount;\n    }\n\n    function getCandidateName(uint _elecID, uint _candidateID) public view returns (string memory) {\n        return elections[_elecID].candidates[_candidateID].name;\n    }\n\n    function getGreeting() public pure returns (string memory) {\n        return \"Hey MC!!!\";\n    }\n}",
  "sourcePath": "/home/canyu/go/src/github.com/mucanyu/oyla/contracts/Oyla.sol",
  "compiler": {
    "name": "solc",
    "version": "0.5.0+commit.1d4f565a.Emscripten.clang"
  },
  "schemaVersion": "3.0.1",
  "updatedAt": "2019-05-09T16:52:39.108Z",
  "devdoc": {
    "methods": {}
  },
  "userdoc": {
    "methods": {}
  }
}